{
  "_format": "hh-sol-artifact-1",
  "contractName": "TruvalueAnchor",
  "sourceName": "contracts/TruvalueAnchor.sol",
  "abi": [
    {
      "inputs": [],
      "stateMutability": "nonpayable",
      "type": "constructor"
    },
    {
      "inputs": [],
      "name": "EnforcedPause",
      "type": "error"
    },
    {
      "inputs": [],
      "name": "ExpectedPause",
      "type": "error"
    },
    {
      "inputs": [
        {
          "internalType": "address",
          "name": "owner",
          "type": "address"
        }
      ],
      "name": "OwnableInvalidOwner",
      "type": "error"
    },
    {
      "inputs": [
        {
          "internalType": "address",
          "name": "account",
          "type": "address"
        }
      ],
      "name": "OwnableUnauthorizedAccount",
      "type": "error"
    },
    {
      "anonymous": false,
      "inputs": [
        {
          "indexed": true,
          "internalType": "address",
          "name": "anchor",
          "type": "address"
        },
        {
          "indexed": false,
          "internalType": "bool",
          "name": "authorized",
          "type": "bool"
        }
      ],
      "name": "AnchorAuthorizationChanged",
      "type": "event"
    },
    {
      "anonymous": false,
      "inputs": [
        {
          "indexed": true,
          "internalType": "uint256",
          "name": "batchId",
          "type": "uint256"
        },
        {
          "indexed": false,
          "internalType": "bytes32",
          "name": "merkleRoot",
          "type": "bytes32"
        },
        {
          "indexed": false,
          "internalType": "string",
          "name": "reason",
          "type": "string"
        }
      ],
      "name": "BatchRemoved",
      "type": "event"
    },
    {
      "anonymous": false,
      "inputs": [
        {
          "indexed": true,
          "internalType": "address",
          "name": "by",
          "type": "address"
        },
        {
          "indexed": false,
          "internalType": "string",
          "name": "reason",
          "type": "string"
        }
      ],
      "name": "ContractPaused",
      "type": "event"
    },
    {
      "anonymous": false,
      "inputs": [
        {
          "indexed": true,
          "internalType": "address",
          "name": "by",
          "type": "address"
        }
      ],
      "name": "ContractUnpaused",
      "type": "event"
    },
    {
      "anonymous": false,
      "inputs": [
        {
          "indexed": true,
          "internalType": "uint256",
          "name": "batchId",
          "type": "uint256"
        },
        {
          "indexed": true,
          "internalType": "bytes32",
          "name": "merkleRoot",
          "type": "bytes32"
        },
        {
          "indexed": false,
          "internalType": "uint256",
          "name": "recordCount",
          "type": "uint256"
        },
        {
          "indexed": false,
          "internalType": "uint256",
          "name": "timestamp",
          "type": "uint256"
        }
      ],
      "name": "MerkleRootAnchored",
      "type": "event"
    },
    {
      "anonymous": false,
      "inputs": [
        {
          "indexed": true,
          "internalType": "address",
          "name": "previousOwner",
          "type": "address"
        },
        {
          "indexed": true,
          "internalType": "address",
          "name": "newOwner",
          "type": "address"
        }
      ],
      "name": "OwnershipTransferred",
      "type": "event"
    },
    {
      "anonymous": false,
      "inputs": [
        {
          "indexed": false,
          "internalType": "address",
          "name": "account",
          "type": "address"
        }
      ],
      "name": "Paused",
      "type": "event"
    },
    {
      "anonymous": false,
      "inputs": [
        {
          "indexed": false,
          "internalType": "address",
          "name": "account",
          "type": "address"
        }
      ],
      "name": "Unpaused",
      "type": "event"
    },
    {
      "inputs": [],
      "name": "MAX_RECORDS_PER_BATCH",
      "outputs": [
        {
          "internalType": "uint256",
          "name": "",
          "type": "uint256"
        }
      ],
      "stateMutability": "view",
      "type": "function"
    },
    {
      "inputs": [
        {
          "internalType": "uint256",
          "name": "batchId",
          "type": "uint256"
        },
        {
          "internalType": "bytes32",
          "name": "merkleRoot",
          "type": "bytes32"
        },
        {
          "internalType": "uint256",
          "name": "recordCount",
          "type": "uint256"
        }
      ],
      "name": "anchorMerkleRoot",
      "outputs": [
        {
          "internalType": "uint256",
          "name": "timestamp",
          "type": "uint256"
        }
      ],
      "stateMutability": "nonpayable",
      "type": "function"
    },
    {
      "inputs": [
        {
          "internalType": "address",
          "name": "",
          "type": "address"
        }
      ],
      "name": "authorizedAnchors",
      "outputs": [
        {
          "internalType": "bool",
          "name": "",
          "type": "bool"
        }
      ],
      "stateMutability": "view",
      "type": "function"
    },
    {
      "inputs": [
        {
          "internalType": "uint256",
          "name": "",
          "type": "uint256"
        }
      ],
      "name": "batches",
      "outputs": [
        {
          "internalType": "bytes32",
          "name": "merkleRoot",
          "type": "bytes32"
        },
        {
          "internalType": "uint256",
          "name": "recordCount",
          "type": "uint256"
        },
        {
          "internalType": "uint256",
          "name": "timestamp",
          "type": "uint256"
        },
        {
          "internalType": "bool",
          "name": "exists",
          "type": "bool"
        }
      ],
      "stateMutability": "view",
      "type": "function"
    },
    {
      "inputs": [
        {
          "internalType": "uint256",
          "name": "batchId",
          "type": "uint256"
        }
      ],
      "name": "getBatch",
      "outputs": [
        {
          "internalType": "bytes32",
          "name": "merkleRoot",
          "type": "bytes32"
        },
        {
          "internalType": "uint256",
          "name": "recordCount",
          "type": "uint256"
        },
        {
          "internalType": "uint256",
          "name": "timestamp",
          "type": "uint256"
        },
        {
          "internalType": "bool",
          "name": "exists",
          "type": "bool"
        }
      ],
      "stateMutability": "view",
      "type": "function"
    },
    {
      "inputs": [
        {
          "internalType": "bytes32",
          "name": "merkleRoot",
          "type": "bytes32"
        }
      ],
      "name": "getBatchByRoot",
      "outputs": [
        {
          "internalType": "uint256",
          "name": "batchId",
          "type": "uint256"
        },
        {
          "internalType": "uint256",
          "name": "recordCount",
          "type": "uint256"
        },
        {
          "internalType": "uint256",
          "name": "timestamp",
          "type": "uint256"
        },
        {
          "internalType": "bool",
          "name": "exists",
          "type": "bool"
        }
      ],
      "stateMutability": "view",
      "type": "function"
    },
    {
      "inputs": [],
      "name": "getStats",
      "outputs": [
        {
          "internalType": "uint256",
          "name": "_totalBatches",
          "type": "uint256"
        },
        {
          "internalType": "uint256",
          "name": "_totalRecords",
          "type": "uint256"
        }
      ],
      "stateMutability": "view",
      "type": "function"
    },
    {
      "inputs": [],
      "name": "owner",
      "outputs": [
        {
          "internalType": "address",
          "name": "",
          "type": "address"
        }
      ],
      "stateMutability": "view",
      "type": "function"
    },
    {
      "inputs": [
        {
          "internalType": "string",
          "name": "reason",
          "type": "string"
        }
      ],
      "name": "pause",
      "outputs": [],
      "stateMutability": "nonpayable",
      "type": "function"
    },
    {
      "inputs": [],
      "name": "paused",
      "outputs": [
        {
          "internalType": "bool",
          "name": "",
          "type": "bool"
        }
      ],
      "stateMutability": "view",
      "type": "function"
    },
    {
      "inputs": [
        {
          "internalType": "uint256",
          "name": "batchId",
          "type": "uint256"
        },
        {
          "internalType": "string",
          "name": "reason",
          "type": "string"
        }
      ],
      "name": "removeBatch",
      "outputs": [],
      "stateMutability": "nonpayable",
      "type": "function"
    },
    {
      "inputs": [],
      "name": "renounceOwnership",
      "outputs": [],
      "stateMutability": "nonpayable",
      "type": "function"
    },
    {
      "inputs": [
        {
          "internalType": "bytes32",
          "name": "",
          "type": "bytes32"
        }
      ],
      "name": "rootExists",
      "outputs": [
        {
          "internalType": "bool",
          "name": "",
          "type": "bool"
        }
      ],
      "stateMutability": "view",
      "type": "function"
    },
    {
      "inputs": [
        {
          "internalType": "bytes32",
          "name": "",
          "type": "bytes32"
        }
      ],
      "name": "rootToBatchId",
      "outputs": [
        {
          "internalType": "uint256",
          "name": "",
          "type": "uint256"
        }
      ],
      "stateMutability": "view",
      "type": "function"
    },
    {
      "inputs": [
        {
          "internalType": "address",
          "name": "anchor",
          "type": "address"
        },
        {
          "internalType": "bool",
          "name": "authorized",
          "type": "bool"
        }
      ],
      "name": "setAnchorAuthorization",
      "outputs": [],
      "stateMutability": "nonpayable",
      "type": "function"
    },
    {
      "inputs": [],
      "name": "totalBatches",
      "outputs": [
        {
          "internalType": "uint256",
          "name": "",
          "type": "uint256"
        }
      ],
      "stateMutability": "view",
      "type": "function"
    },
    {
      "inputs": [],
      "name": "totalRecords",
      "outputs": [
        {
          "internalType": "uint256",
          "name": "",
          "type": "uint256"
        }
      ],
      "stateMutability": "view",
      "type": "function"
    },
    {
      "inputs": [
        {
          "internalType": "address",
          "name": "newOwner",
          "type": "address"
        }
      ],
      "name": "transferOwnership",
      "outputs": [],
      "stateMutability": "nonpayable",
      "type": "function"
    },
    {
      "inputs": [],
      "name": "unpause",
      "outputs": [],
      "stateMutability": "nonpayable",
      "type": "function"
    },
    {
      "inputs": [
        {
          "internalType": "bytes32",
          "name": "merkleRoot",
          "type": "bytes32"
        }
      ],
      "name": "verifyMerkleRoot",
      "outputs": [
        {
          "internalType": "bool",
          "name": "exists",
          "type": "bool"
        },
        {
          "internalType": "uint256",
          "name": "batchId",
          "type": "uint256"
        },
        {
          "internalType": "uint256",
          "name": "timestamp",
          "type": "uint256"
        }
      ],
      "stateMutability": "view",
      "type": "function"
    }
  ],
  "bytecode": "0x608060405234801561001057600080fd5b50338061003757604051631e4fbdf760e01b81526000600482015260240160405180910390fd5b61004081610060565b50336000908152600660205260409020805460ff191660011790556100b0565b600080546001600160a01b038381166001600160a01b0319831681178455604051919092169283917f8be0079c531659141344cd1fd0a4f28419497f9722a3daafe3b4186f6b6457e09190a35050565b6110db806100bf6000396000f3fe608060405234801561001057600080fd5b506004361061012c5760003560e01c8063715018a6116100ad578063c59d484711610071578063c59d4847146102e2578063d03abd40146102fd578063f2fde38b14610310578063f503264f14610323578063fd81654e1461033657600080fd5b8063715018a6146102505780638da5cb5b14610258578063b2be0d4a14610273578063b32c4d8d14610296578063bc8937ab146102cf57600080fd5b80635c975abb116100f45780635c975abb146101ef5780635de52f251461020157806369ff6abb146102145780636c252aea1461021d5780636da663551461023d57600080fd5b80630524b18f146101315780630820dc2f14610169578063125f8974146101995780633f4ba83a146101b05780635ac44282146101ba575b600080fd5b61015461013f366004610e35565b60036020526000908152604090205460ff1681565b60405190151581526020015b60405180910390f35b61017c610177366004610e35565b610340565b604080519315158452602084019290925290820152606001610160565b6101a260055481565b604051908152602001610160565b6101b861046d565b005b6101cd6101c8366004610e35565b6104aa565b6040805194855260208501939093529183015215156060820152608001610160565b600054600160a01b900460ff16610154565b6101b861020f366004610e6a565b6104fd565b6101a260045481565b6101a261022b366004610e35565b60026020526000908152604090205481565b6101b861024b366004610eef565b6105c0565b6101b861060b565b6000546040516001600160a01b039091168152602001610160565b610154610281366004610f31565b60066020526000908152604090205460ff1681565b6101cd6102a4366004610e35565b6001602081905260009182526040909120805491810154600282015460039092015490919060ff1684565b6101b86102dd366004610f53565b61061f565b60045460055460408051928352602083019190915201610160565b6101cd61030b366004610e35565b61078c565b6101b861031e366004610f31565b610951565b6101a2610331366004610f9f565b61098f565b6101a2620f424081565b6000818152600360205260408120548190819060ff1661036857506000915081905080610466565b60008481526002602052604090205491508115801590610399575060008281526001602052604090206003015460ff165b156103bc5750600081815260016020819052604090912060020154909250610466565b6000805260016020527fa6eef7e35abe7026729641147f7915573c7e97b47efa546f5f6e3230263bcb4c5460ff16801561041f57506000805260016020527fa6eef7e35abe7026729641147f7915573c7e97b47efa546f5f6e3230263bcb495484145b1561045c5750506000808052600160208190527fa6eef7e35abe7026729641147f7915573c7e97b47efa546f5f6e3230263bcb4b54909250610466565b5060009150819050805b9193909250565b610475610ccb565b61047d610cf8565b60405133907f5b65b0c1363b3003db9bcc5e1fd8805a6d6bf5bf6dc9d3431ee4494cd7d1176690600090a2565b6000818152600160208181526040928390208351608081018552815480825293820154928101839052600282015494810185905260039091015460ff1615156060909101819052919290915b9193509193565b610505610ccb565b6001600160a01b0382166105605760405162461bcd60e51b815260206004820152601c60248201527f54727576616c7565416e63686f723a207a65726f20616464726573730000000060448201526064015b60405180910390fd5b6001600160a01b038216600081815260066020908152604091829020805460ff191685151590811790915591519182527f6f7554edd52413a3d8fffb883e49dd535954183b4b0ba7e1189a71cc68d233de91015b60405180910390a25050565b6105c8610ccb565b6105d0610d4d565b336001600160a01b03167fa45b854309f0bbcd0b5fe966bcc16c83a563411377ca9b86644a9aff98723a1383836040516105b4929190610ff4565b610613610ccb565b61061d6000610d90565b565b610627610ccb565b60008381526001602052604090206003015460ff166106885760405162461bcd60e51b815260206004820152601f60248201527f54727576616c7565416e63686f723a206261746368206e6f7420666f756e64006044820152606401610557565b600083815260016020818152604080842081516080810183528154815293810154928401929092526002820154908301526003015460ff16151560608201526004805491926106d683611026565b91905055508060200151600560008282546106f1919061103d565b909155505080516000908152600260208181526040808420849055845184526003808352818520805460ff19908116909155898652600193849052828620868155938401869055938301949094559201805490911690558151905185917f79116fe9101032eab44a803544523bee737d70f56fd81a05f57d8e9b39ea6c3c9161077e919087908790611056565b60405180910390a250505050565b60008181526003602052604081205481908190819060ff166107b9575060009250829150819050806104f6565b60008581526002602052604090205493508315801561080157506000805260016020527fa6eef7e35abe7026729641147f7915573c7e97b47efa546f5f6e3230263bcb495485145b156108cd575050600080805260016020908152604080516080810182527fa6eef7e35abe7026729641147f7915573c7e97b47efa546f5f6e3230263bcb495481527fa6eef7e35abe7026729641147f7915573c7e97b47efa546f5f6e3230263bcb4a549281018390527fa6eef7e35abe7026729641147f7915573c7e97b47efa546f5f6e3230263bcb4b549181018290527fa6eef7e35abe7026729641147f7915573c7e97b47efa546f5f6e3230263bcb4c5460ff1615156060909101819052929450909250906104f6565b83158015906108ed575060008481526001602052604090206003015460ff165b15610940575050506000818152600160208181526040928390208351608081018552815481529281015491830182905260028101549383018490526003015460ff161515606090920182905291906104f6565b506000948594508493508392509050565b610959610ccb565b6001600160a01b03811661098357604051631e4fbdf760e01b815260006004820152602401610557565b61098c81610d90565b50565b3360009081526006602052604081205460ff166109ee5760405162461bcd60e51b815260206004820152601e60248201527f54727576616c7565416e63686f723a206e6f7420617574686f72697a656400006044820152606401610557565b6109f6610de0565b82610a4f5760405162461bcd60e51b815260206004820152602360248201527f54727576616c7565416e63686f723a20696e76616c6964206d65726b6c6520726044820152621bdbdd60ea1b6064820152608401610557565b60008211610a9f5760405162461bcd60e51b815260206004820152601b60248201527f54727576616c7565416e63686f723a20656d70747920626174636800000000006044820152606401610557565b620f4240821115610af25760405162461bcd60e51b815260206004820181905260248201527f54727576616c7565416e63686f723a20746f6f206d616e79207265636f7264736044820152606401610557565b60008481526001602052604090206003015460ff1615610b635760405162461bcd60e51b815260206004820152602660248201527f54727576616c7565416e63686f723a20626174636820616c726561647920616e60448201526518da1bdc995960d21b6064820152608401610557565b60008381526003602052604090205460ff1615610bd05760405162461bcd60e51b815260206004820152602560248201527f54727576616c7565416e63686f723a20726f6f7420616c726561647920616e636044820152641a1bdc995960da1b6064820152608401610557565b506040805160808101825283815260208082018481524283850181815260016060860181815260008b815295829052969094209451855591519284019290925551600283015591516003909101805460ff19169115159190911790558315610c445760008381526002602052604090208490555b6000838152600360205260408120805460ff191660011790556004805491610c6b83611079565b91905055508160056000828254610c829190611092565b90915550506040805183815260208101839052849186917fa61daa7a04876aae7f9cfefdb9fcf6d5cf58d6107d69c19980f2cc39ba50ec1d910160405180910390a39392505050565b6000546001600160a01b0316331461061d5760405163118cdaa760e01b8152336004820152602401610557565b610d00610e0b565b6000805460ff60a01b191690557f5db9ee0a495bf2e6ff9c91a7834c1ba4fdd244a5e8aa4e537bd38aeae4b073aa335b6040516001600160a01b03909116815260200160405180910390a1565b610d55610de0565b6000805460ff60a01b1916600160a01b1790557f62e78cea01bee320cd4e420270b5ea74000d11b0c9f74754ebdbfc544b05a258610d303390565b600080546001600160a01b038381166001600160a01b0319831681178455604051919092169283917f8be0079c531659141344cd1fd0a4f28419497f9722a3daafe3b4186f6b6457e09190a35050565b600054600160a01b900460ff161561061d5760405163d93c066560e01b815260040160405180910390fd5b600054600160a01b900460ff1661061d57604051638dfc202b60e01b815260040160405180910390fd5b600060208284031215610e4757600080fd5b5035919050565b80356001600160a01b0381168114610e6557600080fd5b919050565b60008060408385031215610e7d57600080fd5b610e8683610e4e565b915060208301358015158114610e9b57600080fd5b809150509250929050565b60008083601f840112610eb857600080fd5b50813567ffffffffffffffff811115610ed057600080fd5b602083019150836020828501011115610ee857600080fd5b9250929050565b60008060208385031215610f0257600080fd5b823567ffffffffffffffff811115610f1957600080fd5b610f2585828601610ea6565b90969095509350505050565b600060208284031215610f4357600080fd5b610f4c82610e4e565b9392505050565b600080600060408486031215610f6857600080fd5b83359250602084013567ffffffffffffffff811115610f8657600080fd5b610f9286828701610ea6565b9497909650939450505050565b600080600060608486031215610fb457600080fd5b505081359360208301359350604090920135919050565b81835281816020850137506000828201602090810191909152601f909101601f19169091010190565b602081526000611008602083018486610fcb565b949350505050565b634e487b7160e01b600052601160045260246000fd5b60008161103557611035611010565b506000190190565b8181038181111561105057611050611010565b92915050565b838152604060208201526000611070604083018486610fcb565b95945050505050565b60006001820161108b5761108b611010565b5060010190565b808201808211156110505761105061101056fea2646970667358221220115f6a1981b0f4acf45929cf7d65e9601be83251e5fbd741b09a4a18051bfeda64736f6c63430008140033",
  "linkReferences": {},
  "deployedLinkReferences": {}
}